:020000040800F2
:1000000000A000207D7C00083171000833710008D9
:1000100035710008377100083971000800000000D0
:100020000000000000000000000000003B7100081C
:100030003D710008000000003F7100084171000898
:10004000CD7C0008CD7C0008CD7C0008CD7C00086C
:10005000CD7C0008CD7C0008CD7C0008CD7C00085C
:10006000CD7C0008CD7C0008CD7C000849710008DB
:10007000CD7C0008CD7C0008CD7C0008CD7C00083C
:10008000CD7C0008CD7C0008CD7C0008000000007D
:10009000000000000000000000000000CD7C00080F
:1000A000CD7C0008CD7C0008CD7C0008CD7C00080C
:1000B000CD7C00080000000000000000597100081D
:1000C000CD7C0008CD7C0008CD7C0008CD7C0008EC
:1000D000CD7C0008CD7C0008CD7C0008CD7C0008DC
:1000E000CD7C0008CD7C000800000000000000006E
:1000F0000000000000000000000000000000000000
:1001000000000000000000000000000000000000EF
:1001100000000000000000006971000800000000FD
:10012000CD7C0008CD7C0008CD7C0008CD7C00088B
:10013000CD7C00080000000000000000000000006E
:10014000CD7C0008CD7C0008CD7C000879710008CA
:10015000CD7C0008CD7C0008CD7C0008CD7C00085B
:10016000CD7C0008CD7C00080000000000000000ED
:1001700000000000CD7C000800000000CD7C0008DD
:0C018000CD7C0008CD7C0008CD7C000880
:1001900010B5054C237833B9044B13B10448AFF3C1
:1001A00000800123237010BD9C030020000000008C
:1001B00034B3000808B5034B1BB103490348AFF340
:1001C000008008BD00000000A003002034B3000838
:1001D000034613F8012B002AFBD1181A0138704787
:1001E00001F0FF01102A2BDB10F0070F08D010F8E8
:1001F000013B013A8B422DD010F0070F42B3F6D1EC
:10020000F0B441EA012141EA014122F007047FF004
:1002100000070023F0E80256083C85EA010586EA5B
:10022000010685FA47F5A3FA87F586FA47F6A5FA97
:1002300087F68EB9EED1F0BC01F0FF0102F00702A3
:1002400032B110F8013B013A83EA010313B1F8D14E
:100250000020704701387047002D06BF354603382F
:10026000073815F0010F07D1013015F4807F02BF68
:10027000013015F4C03F0130F0BC0138704700BFB9
:1002800081F0004102E000BF83F0004330B54FEA47
:1002900041044FEA430594EA050F08BF90EA020FB4
:1002A0001FBF54EA000C55EA020C7FEA645C7FEA47
:1002B000655C00F0E2804FEA5454D4EB5555B8BF6A
:1002C0006D420CDD2C4480EA020281EA030382EADB
:1002D000000083EA010180EA020281EA0303362D6D
:1002E00088BF30BD11F0004F4FEA01314FF4801C40
:1002F0004CEA113102D0404261EB410113F0004F52
:100300004FEA03334CEA133302D0524263EB430308
:1003100094EA050F00F0A780A4F10104D5F1200EA6
:100320000DDB02FA0EFC22FA05F2801841F1000101
:1003300003FA0EF2801843FA05F359410EE0A5F1D5
:1003400020050EF1200E012A03FA0EFC28BF4CF006
:10035000020C43FA05F3C01851EBE37101F00045BC
:1003600007D54FF0000EDCF1000C7EEB00006EEBC9
:100370000101B1F5801F1BD3B1F5001F0CD3490853
:100380005FEA30004FEA3C0C04F101044FEA4452AA
:1003900012F5800F80F09A80BCF1004F08BF5FEA31
:1003A000500C50F1000041EB045141EA050130BD11
:1003B0005FEA4C0C404141EB010111F4801FA4F1B4
:1003C0000104E9D191F0000F04BF01460020B1FA09
:1003D00081F308BF2033A3F10B03B3F120020CDA41
:1003E0000C3208DD02F1140CC2F10C0201FA0CF01F
:1003F00021FA02F10CE002F11402D8BFC2F1200C84
:1004000001FA02F120FA0CFCDCBF41EA0C01904039
:10041000E41AA2BF01EB0451294330BD6FEA040482
:100420001F3C1CDA0C340EDC04F11404C4F120026D
:1004300020FA04F001FA02F340EA030021FA04F37F
:1004400045EA030130BDC4F10C04C4F1200220FAD6
:1004500002F001FA04F340EA0300294630BD21FA14
:1004600004F0294630BD94F0000F83F4801306BFDA
:1004700081F480110134013D4EE77FEA645C18BFCE
:100480007FEA655C29D094EA050F08BF90EA020F65
:1004900005D054EA000C04BF1946104630BD91EA5D
:1004A000030F1EBF0021002030BD5FEA545C05D160
:1004B0004000494128BF41F0004130BD14F580049F
:1004C0003CBF01F5801130BD01F0004545F0FE4113
:1004D00041F470014FF0000030BD7FEA645C1ABF48
:1004E000194610467FEA655C1CBF0B46024650EA7F
:1004F000013406BF52EA033591EA030F41F40021AB
:1005000030BD00BF90F0000F04BF0021704730B530
:100510004FF4806404F132044FF000054FF0000105
:1005200050E700BF90F0000F04BF0021704730B5C6
:100530004FF4806404F1320410F0004548BF40429B
:100540004FF000013EE700BF42004FEAE2014FEAF0
:1005500031014FEA02701FBF12F07F4393F07F4FCB
:1005600081F06051704732F07F4208BF704793F0CE
:100570007F4F04BF41F40021704730B54FF46074E1
:1005800001F0004521F000411CE700BF50EA0102E4
:1005900008BF704730B54FF000050AE050EA01028D
:1005A00008BF704730B511F0004502D5404261EBFD
:1005B00041014FF4806404F132045FEA915C3FF43E
:1005C000D8AE4FF003025FEADC0C18BF03325FEADB
:1005D000DC0C18BF033202EBDC02C2F1200300FA8C
:1005E00003FC20FA02F001FA03FE40EA0E0021FAB1
:1005F00002F11444BDE600BF70B54FF0FF0C4CF49F
:10060000E06C1CEA11541DBF1CEA135594EA0C0F50
:1006100095EA0C0F00F0DEF82C4481EA030621EA8B
:100620004C5123EA4C5350EA013518BF52EA0335C6
:1006300041F4801143F4801338D0A0FB02CE4FF078
:100640000005E1FB02E506F00042E0FB03E54FF0A8
:100650000006E1FB03569CF0000F18BF4EF0010EA0
:10066000A4F1FF04B6F5007F64F5407404D25FEA9C
:100670004E0E6D4146EB060642EAC62141EA55514F
:100680004FEAC52040EA5E504FEACE2EB4F1FD0C91
:1006900088BFBCF5E06F1ED8BEF1004F08BF5FEA0F
:1006A000500E50F1000041EB045170BD06F00046C1
:1006B00046EA010140EA020081EA0301B4EB5C046E
:1006C000C2BFD4EB0C0541EA045170BD41F4801166
:1006D0004FF0000E013C00F3AB8014F1360FDEBF8B
:1006E000002001F0004170BDC4F10004203C35DA67
:1006F0000C341BDC04F11404C4F1200500FA05F3EA
:1007000020FA04F001FA05F240EA020001F000428A
:1007100021F0004110EBD37021FA04F642EB060100
:100720005EEA430E08BF20EAD37070BDC4F10C042A
:10073000C4F1200500FA04F320FA05F001FA04F2EE
:1007400040EA020001F0004110EBD37041F10001DA
:100750005EEA430E08BF20EAD37070BDC4F12005E5
:1007600000FA05F24EEA020E20FA04F301FA05F24D
:1007700043EA020321FA04F001F0004121FA04F2F5
:1007800020EA020000EBD3705EEA430E08BF20EAC5
:10079000D37070BD94F0000F0FD101F000464000FF
:1007A00041EB010111F4801F08BF013CF7D041EA81
:1007B000060195F0000F18BF704703F00046520085
:1007C00043EB030313F4801F08BF013DF7D043EA56
:1007D0000603704794EA0C0F0CEA135518BF95EA0C
:1007E0000C0F0CD050EA410618BF52EA4306D1D193
:1007F00081EA030101F000414FF0000070BD50EAB2
:10080000410606BF1046194652EA430619D094EA3B
:100810000C0F02D150EA013613D195EA0C0F05D125
:1008200052EA03361CBF104619460AD181EA030179
:1008300001F0004141F0FE4141F470014FF0000031
:1008400070BD41F0FE4141F4780170BD70B54FF0CC
:10085000FF0C4CF4E06C1CEA11541DBF1CEA13554C
:1008600094EA0C0F95EA0C0F00F0A7F8A4EB05042E
:1008700081EA030E52EA03354FEA013100F0888025
:100880004FEA03334FF0805545EA131343EA1263EE
:100890004FEA022245EA111545EA10654FEA0026A3
:1008A0000EF000419D4208BF964244F1FD0404F55C
:1008B000407402D25B084FEA3202B61A65EB0305B8
:1008C0005B084FEA32024FF480104FF4002CB6EB75
:1008D000020E75EB030E22BFB61A754640EA0C00F5
:1008E0005B084FEA3202B6EB020E75EB030E22BF35
:1008F000B61A754640EA5C005B084FEA3202B6EB76
:10090000020E75EB030E22BFB61A754640EA9C0034
:100910005B084FEA3202B6EB020E75EB030E22BF04
:10092000B61A754640EADC0055EA060E18D04FEAC2
:10093000051545EA16754FEA06164FEAC30343EA62
:1009400052734FEAC2025FEA1C1CC0D111F4801F2F
:100950000BD141EA00014FF000004FF0004CB6E728
:1009600011F4801F04BF01430020B4F1FD0C88BFC7
:10097000BCF5E06F3FF6AFAEB5EB030C04BFB6EBD2
:10098000020C5FEA500C50F1000041EB045170BDC5
:100990000EF0004E4EEA113114EB5C04C2BFD4EBF2
:1009A0000C0541EA045170BD41F480114FF0000E76
:1009B000013C90E645EA060E8DE60CEA135594EAF2
:1009C0000C0F08BF95EA0C0F3FF43BAF94EA0C0FF5
:1009D0000AD150EA01347FF434AF95EA0C0F7FF46A
:1009E00025AF104619462CE795EA0C0F06D152EABE
:1009F00003353FF4FDAE1046194622E750EA4106A2
:100A000018BF52EA43067FF4C5AE50EA41047FF4B2
:100A10000DAF52EA43057FF4EBAE12E74FF0FF3C17
:100A200006E000BF4FF0010C02E000BF4FF0010CE8
:100A30004DF804CD4FEA410C7FEA6C5C4FEA430C61
:100A400018BF7FEA6C5C1BD001B050EA410C0CBFB0
:100A500052EA430C91EA030F02BF90EA020F002012
:100A6000704710F1000F91EA030F58BF994208BF79
:100A700090422CBFD8176FEAE37040F00100704736
:100A80004FEA410C7FEA6C5C02D150EA013C07D18D
:100A90004FEA430C7FEA6C5CD6D152EA033CD3D0D8
:100AA0005DF8040B704700BF8446104662468C46D2
:100AB0001946634600E000BF01B5FFF7B7FF002805
:100AC00048BF10F1000F01BD4DF808EDFFF7F4FF2E
:100AD0000CBF012000205DF808FB00BF4DF808EDB9
:100AE000FFF7EAFF34BF012000205DF808FB00BFDC
:100AF0004DF808EDFFF7E0FF94BF012000205DF8FE
:100B000008FB00BF4DF808EDFFF7CEFF94BF0120B2
:100B100000205DF808FB00BF4DF808EDFFF7C4FFAB
:100B200034BF012000205DF808FB00BF4FEA410CF4
:100B30007FEA6C5C02D150EA013C0AD14FEA430CD7
:100B40007FEA6C5C02D152EA033C02D14FF0000014
:100B500070474FF0010070474FEA410212F5001252
:100B600015D211D56FF47873B3EB625212D94FEAF4
:100B7000C12343F0004343EA505311F0004F23FADE
:100B800002F018BF404270474FF00000704750EA33
:100B9000013005D111F0004008BF6FF000407047F0
:100BA0004FF00000704700BF4FEA4102B2F1E0434E
:100BB00024BFB3F5001CDCF1FE5C0DD901F0004C44
:100BC0004FEAC0024CEA5070B2F1004F40EB830094
:100BD00008BF20F00100704711F0804F21D113F1C0
:100BE0003872BCBF01F00040704741F480114FEAF9
:100BF0005252C2F11802C2F1200C10FA0CF320FA82
:100C000002F018BF40F001004FEAC1234FEAD3239E
:100C100003FA0CFC40EA0C0023FA02F34FEA430308
:100C2000CCE77FEA625307D150EA01331EBF4FF091
:100C3000FE4040F44000704701F0004040F0FE40AC
:100C400040F40000704700BF104B1B680BB9012037
:100C5000704710B504464FF47A70B0FBF3F30C4ABA
:100C60001068B0FBF3F000F02FFE68B90F2C01D92B
:100C700001200AE0002221464FF0FF3000F0E2FDA3
:100C8000044B1C60002000E0012010BD000000208B
:100C9000540100200400002010B5032000F0C0FD26
:100CA0000020FFF7D1FF10B10124204610BD0446FB
:100CB00006F070F9F9E70000034A13680349096870
:100CC0000B441360704700BF0006002000000020A6
:100CD000014B1868704700BF0006002038B5044675
:100CE000FFF7F6FF0546B4F1FF3F02D0044B1B6847
:100CF0001C44FFF7EDFF401BA042FAD338BD00BFF4
:100D00000000002030B583B000230193002800F0DC
:100D1000EC800446436D03B323689A6812F0005FC9
:100D200005D09A6822F0204222F03F029A602268A1
:100D3000936813F0805F1DD1936823F0104323F074
:100D40003F0343F080539360694B1B689B09694ADA
:100D5000A2FB03239B09019309E006F033F900236A
:100D6000A36584F85030D7E7019B013B0193019BB9
:100D7000002BF9D123689A6812F0805F40F08280DE
:100D8000626D42F010026265A26D42F00102A2653E
:100D900001209A6812F0040F76D00121626D12F0E2
:100DA000100F40F09B80002940F09880626D22F483
:100DB000817242F0020262659B6813F0010F14D148
:100DC0004D4B9B6813F0010F60D001224B4B9B6889
:100DD00013F0010F5CD00123134306D16368484927
:100DE0008A6822F47C1213438B60627E636B43EA51
:100DF0004233E2681343A268134394F8202043EA85
:100E00000243012A46D0A26A22B102F47072E16A5A
:100E10000A4313432168CD683A4A2A401343CB6002
:100E200023689A6812F0040F39D001219A6812F0F1
:100E3000080F36D00122B1B9AAB9217E94F830202A
:100E4000520042EA8131DA6822F4804222F0020242
:100E50000A43DA6094F83830012B24D022681369F1
:100E600023F0010313612369012B2ED02268136B39
:100E700023F00F031363636D23F0030343F00103B7
:100E8000636530E0002084E7002187E700229DE7CA
:100E90000023A1E7626A013A43EA4243B3E7002133
:100EA000C4E70022C7E721680B6923F4FF6323F03E
:100EB0000403E26B256C2A43656C2A43A56C2A4324
:100EC000134343F001030B61CDE721680B6B23F063
:100ED0000F03E269013A13430B63CCE7636D43F000
:100EE00010036365012003B030BD0120FBE700BFA4
:100EF00054010020632D3E05000004500001045001
:100F00000003045007C0F0FF7047704708B5806ABF
:100F1000FFF7FBFF08BD704708B5836A5A6D12F0F2
:100F2000500F31D15A6D42F400725A651A68116837
:100F300011F0080F14D0D16811F4406F20D1D2689D
:100F400012F4005F1CD15A6D22F480725A655A6DFA
:100F500012F4805F14D15A6D42F001025A650FE01D
:100F6000D26812F0020F0BD15A6D22F480725A65CA
:100F70005A6D12F4805F03D15A6D42F001025A6536
:100F80001846FFF7C1FF08BD5A6D12F0100F03D1CC
:100F9000DB6C5B6B9847F6E71846FFF7BCFFF2E7A0
:100FA00008B5806A436D43F040034365836D43F0A9
:100FB00004038365FFF7AFFF08BD0000F0B482B003
:100FC0000022019290F85020012A00F02C82034662
:100FD000012280F850200268926812F0040F0AD0B3
:100FE000426D42F0200242650120002283F8502029
:100FF00002B0F0BC70474A68052A09D8023A032AB1
:1010000000F29880DFE802F0028C8F920C224A6096
:101010001E684D680C6830362A0A920002F00C02F5
:10102000B05805F01F051F27AF4020EA0700C4F3A2
:101030008464AC402043B0501A68906810F0040FEC
:101040007BD00120946814F0080F78D00124002888
:1010500033D1002C31D18C68B4F1004F71D00E68BF
:101060001432700E800000F004001558C6F30456C8
:101070000727B74025EA0705B4402C4314501868E9
:10108000426922F0004242614C691868C268C2F3AA
:10109000C102520004FA02F20D69042D66D00E68F6
:1010A000603050F82570B34C3C4006F0F8463243AF
:1010B000144344F0004440F825401868826812F058
:1010C000010F16D10A68CD68D0F8B040C2F31206FD
:1010D00024EA060405F01806A74DF5402A40C2F39D
:1010E00012022243C0F8B020C868A44A904200F01F
:1010F00099800A68A2490A4200F09181A149896851
:1011000001F0E074A048824200F02A819F488242A8
:1011100000F05E819E48824200F06E81002064E70C
:1011200012224A6074E718224A6071E74FF4807215
:101130004A606DE706224A606AE7002082E70024E1
:1011400085E70C681432600E800000F0040015582A
:10115000C4F30454072606FA04F425EA04041450E0
:101160001868426942F0004242618DE7026E046EE7
:10117000C4F384640A68C2F3120585BBC2F38462B7
:10118000944231D01C68626E606EC0F384600A685D
:10119000C2F312056DBBC2F3846290422ED01C686C
:1011A000A26EA06EC0F384600A68C2F3120555BB3C
:1011B000C2F3846290422BD01C68E26EE06EC0F3F2
:1011C00084600A68C2F312053DBBC2F38462904298
:1011D0007FF473AFE26E22F00042E2666DE792FAAE
:1011E000A2F2B2FA82F2CBE7026E22F0004202666D
:1011F000C8E792FAA2F2B2FA82F2CEE7626E22F069
:1012000000426266CBE792FAA2F2B2FA82F2D1E72A
:10121000A26E22F00042A266CEE792FAA2F2B2FAE1
:1012200082F2D4E71D680A68C2F3120696BB900EDC
:10123000013000F01F0009288CBF00200120002889
:1012400052D09EBB940E0134A40604F0F844B6BB01
:10125000900E013000F01F070120B8400443C6BBC8
:10126000920E013202F01F0202EB420212052243EB
:101270008C681435500E800000F004002E58C2F324
:1012800004520727974026EA070604FA02F232437F
:101290002A502EE792FAA2F0B0FA80F0013000F066
:1012A0001F0009288CBF00200120C8E792FAA2F491
:1012B000B4FA84F40134A40604F0F844C7E792FABF
:1012C000A2F0B0FA80F0013000F01F070120B84012
:1012D000C4E792FAA2F2B2FA82F2013202F01F02DD
:1012E00002EB42021205C2E7CEB9940E0134A40605
:1012F00004F0F844E6B9900E013000F01F07012019
:10130000B8400443F6B9900E013000F01F0000EB26
:1013100040021E3A120542F000722243A8E792FAF8
:10132000A2F4B4FA84F40134A40604F0F844E1E72A
:1013300092FAA2F0B0FA80F0013000F01F0701200D
:10134000B840DEE792FAA2F0B0FA80F0013000F087
:101350001F0000EB40021E3A120542F00072DCE76B
:1013600011F4000F7FF4D2AE19680A4A914213D0EB
:1013700000203AE600F0FF03FFFF070000007F4077
:101380000000088000030450000052C7000084CB16
:10139000010000800000045044F4000223488168EA
:1013A00021F0E0710A438260214A126892092149C2
:1013B000A1FB0212920902EB42029100019102E0AC
:1013C000019A013A0192019A002AF9D100200CE613
:1013D00011F0807F7FF49EAE1968174A914201D0C8
:1013E000002002E644F080721048816821F0E0712C
:1013F0000A4382600020F8E511F4800F11D11968CA
:101400000D4A914201D00020EFE544F480020748E4
:10141000816821F0E0710A4382600020E5E5002048
:10142000E3E50020E1E50220E2E500BF000304500F
:1014300054010020632D3E050000045038B50368B8
:101440009A6812F0010F3DD199681F4A114209D0E4
:10145000436D43F010034365836D43F001038365DF
:10146000012030E004469A6822F0004222F03F0258
:1014700042F001029A60FFF72BFC054604E0FFF7FB
:1014800027FC401B022811D823681A6812F0010FAC
:1014900016D19A6812F0010FF1D19A6822F0004239
:1014A00022F03F0242F001029A60E8E7636D43F0E8
:1014B00010036365A36D43F00103A365012002E0FF
:1014C000002000E0002038BD3F000080F8B53C4B14
:1014D0009D6803689B6813F0040F6BD105F01F052E
:1014E00090F85030012B68D0012380F8503045B17E
:1014F000052D06D0092D04D0002380F8503001239B
:1015000059E017460E460446FFF798FF03460028A9
:101510004CD1636D23F4706323F0010343F48073B3
:1015200063652368274A93423AD01A46934200D013
:101530001DB9636D23F480136365636D13F4805FDD
:1015400031D0A36D23F00603A365E36C1E4ADA6273
:10155000E36C1E4A1A63E36C1D4A5A6323681C221B
:101560001A60002384F850302268536843F0100357
:1015700053602268D36843F00103D36021683B467F
:1015800032464031E06C00F049FA034621688A682F
:1015900022F0004222F03F0242F004028A600AE098
:1015A000A2F58072C2E70023A365CEE7002284F88B
:1015B000502000E002231846F8BD0223FBE700BFDD
:1015C0000003045000010450190F00080D0F00081B
:1015D000A10F000838B503689A6812F0020F15D001
:1015E00001219A6812F0010F37D0002937D19A688B
:1015F00002F00D02012A0BD0436D43F01003436546
:10160000836D43F001038365012027E00021E8E7B3
:1016100004469A6822F0004222F03F0242F00202A1
:101620009A60036803221A60FFF752FB054623689D
:101630009B6813F0010F0ED0FFF74AFB401B0228F6
:10164000F5D9636D43F010036365A36D43F00103A7
:10165000A365012002E0002000E0002038BD00204A
:10166000FCE730B583B00022019290F85020012AA7
:1016700043D00D460446012380F85030FFF7AAFFFF
:10168000024680BB636D23F4885323F0020343F0CA
:101690000203636521688B6823F0404323F03F0316
:1016A00005F080452B4343F000438B6023689B6823
:1016B000002B11DA019B01330193019BB3F5912FAC
:1016C000F4D3636D23F0120343F01003636500232A
:1016D00084F8503001220DE0636D23F0030343F0E2
:1016E0000103636503E0636D43F01003636500234A
:1016F00084F85030104603B030BD0222FAE70000F3
:1017000090F85020012A00F0838030B49AB003464C
:10171000012280F8502002683E48824238D00020E2
:1017200001900198002837D0806810F0040F3CD059
:101730000120926812F0040F5BD1002859D10A6889
:10174000002A38D0344CA26822F46042486893F8EA
:10175000305040EA45300243A2602E4A926812F0AF
:10176000010F24D001222D48806810F0010F20D0F5
:101770000120024348D1284CA26822F4716222F071
:101780000F020868896801430A43A260002035E01F
:1017900000F580700190C4E75A6D42F020025A654E
:1017A000002283F8502001202BE00020C1E7002216
:1017B000D9E70020DDE71848816821F460418160A5
:1017C0001449896811F0010F11D001211348806874
:1017D00010F0010F00D001220A4317D10E498A6888
:1017E00022F4716222F00F028A60002006E01146A6
:1017F000ECE75A6D42F020025A650120002283F87E
:1018000050201AB030BC70470020F7E70020F5E701
:1018100002207047000004500003045000010450EF
:10182000074AD36823F4E0631B041B0C000200F496
:10183000E060184340F0BF6040F40030D060704773
:1018400000ED00E030B4174BDB68C3F30223C3F1B3
:101850000704042C28BF04241D1D062D18D9033BA2
:101860004FF0FF3505FA04F421EA0401994005FA26
:1018700003F322EA0303194300280BDB0901C9B271
:1018800000F1604000F5614080F8001330BC704703
:101890000023E5E700F00F000901C9B2024B19541B
:1018A000F4E700BF00ED00E014ED00E0002807DBE6
:1018B00000F01F02400901239340024A42F8203001
:1018C000704700BF00E100E00138B0F1807F0AD22C
:1018D000064B5860064AF02182F8231000209860D9
:1018E00007221A6070470120704700BF10E000E037
:1018F00000ED00E070B4446C04F01C05066C01249B
:10190000AC407460046863608368102B05D0036882
:1019100099600368DA6070BC704703689A60036876
:10192000D960F8E7002869D010B403460168344A4A
:10193000914245D8334A0A443349A1FB02121209A5
:1019400092004264314A0264022283F8252018681A
:10195000016821F4FF4121F070019A68DC6822439C
:101960001C6922435C6922439C692243DC6922434F
:101970001C6A22430A4302609A68B2F5804F15D070
:10198000196C224A914226D0214A1168586C00F005
:101990001C040F20A04021EA000111601168586862
:1019A0005C6C04F01C04A040014311600020D8636B
:1019B000012283F8252083F824005DF8044B70474A
:1019C000144A0A441049A1FB02121209920042640F
:1019D000114A0264B8E7A8321168586C00F01C0480
:1019E0000F20A04021EA00011160116858685C6C6A
:1019F00004F01C04A04001431160D7E701207047A8
:101A000007040240F8FFFDBFCDCCCCCC0000024063
:101A1000A8040240F8FBFDBF0004024038B590F86E
:101A20002440012C33D0012480F8244090F8254034
:101A3000E4B2012C04D0002380F82430022038BD09
:101A40000446022084F825000020E0632568286809
:101A500020F0010028602046FFF74CFF236B5BB1AC
:101A60002268136843F00E0313602268136843F082
:101A7000010313600020E2E72268136823F00403E7
:101A800013602268136843F00A031360EDE7022035
:101A9000D5E708B590F82530DBB2022B03D004233C
:101AA000C363012008BD0268136823F00E031360AE
:101AB0000268136823F001031360436C03F01C03F6
:101AC000016C012202FA03F34B6080F82520002309
:101AD00080F82430836B13B198470020E2E70020A0
:101AE000E0E738B5036C196804682568436C03F0B7
:101AF0001C0304229A400A4215D015F0040F12D09C
:101B0000236813F0200F03D1236823F0040323601C
:101B1000436C03F01C02016C042393404B60036B85
:101B200003B1984738BD02229A400A421CD015F0F2
:101B3000020F19D0236813F0200F06D1236823F079
:101B40000A032360012380F82530436C03F01C0254
:101B5000016C022393404B60002380F82430C36A59
:101B6000002BDFD09847DDE7082202FA03F30B428F
:101B7000D8D015F0080FD5D0236823F00E032360CA
:101B8000436C03F01C03016C012202FA03F34B6067
:101B9000C26380F82520002380F82430436B002B9B
:101BA000C0D09847BEE7000010B4064C616941F010
:101BB000010161610260BFF36F8F43605DF8044B08
:101BC000704700BF0020024010B40B4A536943F431
:101BD00080235361EFF3108472B6402351F8042B35
:101BE00040F8042B013B13F0FF03F7D184F3108876
:101BF0005DF8044B704700BF00200240094B5B6951
:101C0000002B01DB00207047064B074A9A6002F167
:101C100088329A605B69002B01DB0020704701204D
:101C2000704700BF0020024023016745034A536903
:101C300043F0004353610020704700BF0020024082
:101C400038B50446FFF744F805461F4B1B6913F4EB
:101C5000803F09D0B4F1FF3FF7D0FFF739F8401BC0
:101C6000A042F2D3032029E0174A136923F07F43EF
:101C700023F47D0323F4705323F00503926902F0EB
:101C80000042134311D011494A681A434A6013F0C5
:101C9000404203D00C49886902438A6133F04043D3
:101CA0000DD0094A1361012008E0074B1B6913F0AE
:101CB000010F06D0044B01221A61002038BD01201B
:101CC000FCE70020FAE700BF0020024008000020E7
:101CD0002DE9F041284C2478012C4AD0984617462B
:101CE0000D460446244B01221A704CF25030FFF787
:101CF000A7FF064608BB204B00225A601F4B1B68FB
:101D000013F4806F1FD01D4A136823F4806313609F
:101D1000194B02221A77D4B1631E012B1ED900245D
:101D20004CF25030FFF78CFF064624B1134A53693A
:101D300023EA0404546100F047F80F4B00221A70A4
:101D40003046BDE8F0810C4B00221A77E3E73A46B3
:101D500043462846FFF728FF0124E1E73946284695
:101D6000FFF732FF022C01D00024D9E74FF4802482
:101D7000D6E70226E4E700BF08000020002002406A
:101D800010F0010F04D0054A536943F00403536176
:101D9000024A536943F48033536170470020024084
:101DA000084B5A6922F4FC72C00000F4FF60024341
:101DB0005A615A6942F002025A615A6942F4803209
:101DC0005A61704700200240144B1B7FDBB2012B8D
:101DD00001D0032B0CD1124A116841F4006111604B
:101DE000116821F400611160116841F40071116003
:101DF000023BDBB2012B03D9084B00221A77704754
:101E0000074B1A6842F480521A601A6822F4805212
:101E10001A601A6842F480621A60EDE70800002038
:101E200000200240F8B53A4B1B78012B6DD00E46CE
:101E30000446374B01221A704CF25030FFF700FF76
:101E4000074600285CD1324B00225A60314B1B6898
:101E500013F4007F31D02F4B1A6822F400721A60FD
:101E60001B6813F4806F24D02A4A136823F480631C
:101E70001360274B03221A772368012B2FD04FF0D2
:101E8000FF333360A568A368E2681344AB4235D9D9
:101E900061682846FFF784FF4CF25030FFF7D0FE10
:101EA0001C4A536923F4FD735361074628BB01356F
:101EB000E9E7174B01221A77DEE7164B1B6813F48C
:101EC000806F08D0134A136823F480631360104BAB
:101ED00002221A77D0E70E4B00221A77CCE760680F
:101EE000FFF74EFF4CF25030FFF7AAFE0746094AB3
:101EF000536923F00403536100E03560FFF764FF8A
:101F0000034B00221A703846F8BD0227FBE700BFDA
:101F10000800002000200240F0B482B0002336E028
:101F2000032400E00024B4403C430235584E46F8F8
:101F30002540584C2568D44304EA05064F6817F439
:101F4000803F01D042EA0506524D2E606D6804EADA
:101F500005064F6817F4003F01D042EA05064D4DD3
:101F60006E60AD6804EA05064F6817F4801F01D063
:101F700042EA0506474DAE60ED682C404E6816F407
:101F8000001F01D042EA0504424AD46001330A68C6
:101F900032FA03F478D001249C402240F6D04D68F8
:101FA000022D01D0122D10D1DE08083650F826C0BF
:101FB00003F00705AF000F25BD402CEA050C0D69A5
:101FC000BD4045EA0C0540F8265006685F00032531
:101FD000BD40ED4305EA060C4E6806F00306BE4020
:101FE00046EA0C0606604E6806F1FF3CBCF1010FA4
:101FF00003D9112E01D0122E10D1866805EA060CE5
:10200000CE68BE4046EA0C068660466826EA0404AE
:102010004E68C6F300169E4026434660C4682540BD
:102020008C68BC402C43C4604C6814F0805FADD019
:10203000194C256E45F001052566246E04F0010457
:102040000194019C9D08AE1C114C54F8267003F0BD
:102050000304A6000F24B44027EA0407B0F1904F10
:102060003FF460AF0D4CA0420AD004F58064A0425A
:1020700008D004F58064A0423FF452AF072452E731
:10208000012450E702244EE702B0F0BC704700BFC5
:10209000000001400004014000100240000400481C
:1020A0000369194201D1002070470120704703687D
:1020B0009A6912F0020F01D000229A6203689A69AD
:1020C00012F0010F03D19A6942F001029A61704740
:1020D00070B4039E05686868740D04F4806444F06D
:1020E0007F7444F4583444F47F7444F0030420EAC9
:1020F0000400C1F3090141EA02411943314301439C
:10210000696070BC70470000436B1D4A934217D052
:102110001C4A934214D011F0040F2FD1002311F068
:10212000010F01D043F0F20311F0020F01D043F090
:10213000F40301F01201122910D143F020030DE045
:1021400011F0040F0FD1002301F01102112A0CD05D
:1021500001F0120112290BD012290CD001680A6873
:1021600013430B607047B823EEE743F09003EFE7AB
:1021700043F02003F0E743F04003EFE7B823CEE756
:10218000252F00082D2E000811F0010F09D090F81E
:10219000413003F02803282B01D0F22302E0422330
:1021A00000E0002311F0020F2CD010B443F04404DF
:1021B00090F8412002F02802282A18D043F0F403B6
:1021C00011F0040F01D043F0B80301F01102112AFD
:1021D0000FD001F0120112290ED012290FD0016880
:1021E0000A6822EA03030B605DF8044B704723463C
:1021F000E6E743F09003ECE743F02003EDE743F01C
:102200004003ECE711F0040F01D043F0B80301F0F4
:102210001102112A0BD001F0120112290AD0122941
:102220000BD001680A6822EA03030B60704743F091
:102230009003F0E743F02003F1E743F04003F0E7B9
:1022400070B504460D46164603689B6913F0100FDF
:102250001CD023689A6912F0200F19D1B5F1FF3F05
:10226000F7D0FEF735FD801BA84201D8002DF0D134
:10227000636C43F020036364202384F8413000231F
:1022800084F8423084F84030012020E000201EE035
:102290001022DA6123682025DD612046FFF707FF61
:1022A0002268536823F0FF7323F48B3323F4FF7306
:1022B00023F001035360636C43F00403636484F808
:1022C0004150002384F8423084F84030012070BD32
:1022D00070B504460D46164623689B6913F0020F3D
:1022E0001DD1324629462046FFF7AAFFC8B9B5F1ED
:1022F000FF3FF1D0FEF7ECFC801BA84201D8002D77
:10230000EAD1636C43F020036364202384F84130F6
:10231000002384F8423084F84030012000E000209F
:1023200070BD0120FCE7F8B505460F4616461C4671
:102330002B689B6937EA03030CBF01230023B342D8
:1023400018D1B4F1FF3FF3D0FEF7C2FC069BC01AD0
:10235000A04201D8002CEBD16B6C43F020036B64DE
:10236000202385F84130002385F8423085F840303D
:10237000012000E00020F8BD70B505460C46164669
:102380002B689B6913F0200F1AD13246214628464C
:10239000FFF756FFB0B9FEF79BFC801BA04201D8A7
:1023A000002CEDD16B6C43F020036B64202385F887
:1023B0004130002385F8423085F84030012070BD5F
:1023C0000020FCE70120FAE7002859D010B50446A8
:1023D00090F84130002B43D0242384F84130226808
:1023E000136823F0010313606368226823F07063AD
:1023F00013612268936823F400439360E368012B20
:1024000033D0A368226843F404439360E368022B4B
:1024100031D02268536843F0007343F400435360A3
:102420002268D36823F40043D360236962691343AD
:10243000A169226843EA0123D360E369216A226823
:102440000B4313602268136843F0010313600020FC
:102450006064202384F84130206384F8420010BD7A
:1024600080F8403004F0FEFDB6E7A368226843F42C
:1024700000439360CAE723684FF400625A60C8E7DC
:10248000012070472DE9F04383B090F84150EDB240
:10249000202D40F0A48090F84040012C00F0A48052
:1024A000984617460E4604464FF0010980F84090C2
:1024B000FEF70EFC0546009019234A464FF40041F2
:1024C0002046FFF730FF002840F09080212384F859
:1024D0004130102384F84230002363646762A4F81B
:1024E0002A806363638D9BB2FF2B0AD9FF2222856A
:1024F000424B00934FF0807331462046FFF7E8FDD2
:1025000018E0628D92B222853C4B00934FF000732D
:10251000D2B231462046FFF7DBFD0BE0628D92B26E
:102520002285002300934FF00073D2B2314620463B
:10253000FFF7CEFD638D9BB2002B33D02A460A995C
:102540002046FFF7C5FE002852D1626A2368127840
:102550009A62636A01336362638D013B9BB2638558
:10256000238D013B9BB22385628D92B2002AE1D07C
:10257000002BDFD100950A9B002280212046FFF727
:10258000D2FE002836D1638D9BB2FF2BC6D9FF2225
:102590002285002300934FF0807331462046FFF7D9
:1025A00097FDC7E72A460A992046FFF7E5FE03464E
:1025B00010BB22682021D1612068426822F0FF729E
:1025C00022F48B3222F4FF7222F00102426084F87E
:1025D0004110002284F8422084F8402000E00223C9
:1025E000184603B0BDE8F0830223F9E70123F7E7BB
:1025F0000123F5E70123F3E70123F1E70020008041
:1026000030B583B090F84140E4B2202C37D1046853
:10261000A46914F4004F35D190F84040012C33D018
:10262000012480F84040212480F84140102480F8A3
:1026300042400024446442624385144BC362144BFD
:102640004363438D9BB2FF2B14D9FF2303854FF0C7
:102650008073044690F828200E4800902046FFF72B
:1026600037FD002584F8405001212046FFF74CFD3E
:10267000284605E0438D03854FF00073E9E702200B
:1026800003B030BD0220FBE70220F9E70000FFFFA6
:10269000B12C00080020008008B5036899691A6809
:1026A000436B03B1984708BD704738B50446002313
:1026B00080F8423090F84130DBB2212B0FD020233C
:1026C00080F8413012230363002545630221FFF7A0
:1026D0005BFD84F840502046FFF7E6FF38BD20231D
:1026E00080F8413011230363002545630121FFF782
:1026F0004BFD84F84050204604F0E6F9EEE77047C1
:10270000704710B50446002380F8423090F84130FD
:10271000DBB2292B05D090F84130DBB22A2B0FD049
:1027200010BD282380F84130212303630121FFF7E6
:102730002BFD002384F840302046FFF7E0FFEFE751
:10274000282380F84130222303630221FFF71CFD78
:10275000002384F840302046FFF7D2FFE0E77047BF
:10276000F8B590F8413003F02803282B06D0036811
:102770000822DA61002380F84030F8BD044603687F
:102780009E69C6F300469A69120C02F0FE059A682B
:10279000C2F30902DF6807F0FE07C168022921D1F0
:1027A00085EAD21515F0060F10D1816C01318164D4
:1027B000816C0229E1D1002181640820D86184F86C
:1027C000401031462046FFF7CAFFD6E70421FFF745
:1027D000DBFC002384F840303A4631462046FFF7C0
:1027E000BEFFCAE70421FFF7CFFC002384F8403086
:1027F0002A4631462046FFF7B2FFBEE77047000089
:1028000010B50446164BC36200230363202280F8F0
:10281000412080F84230436311F0040F12D0036866
:102820005A6A436A1A70436A01334362038D4BB19B
:10283000013B0385438D013B9BB24385436C43F0D1
:102840000403436407212046FFF79EFC23681022FF
:10285000DA61002384F840302046FFF7CFFF10BD37
:102860000000FFFF704770477047704710B504467F
:1028700090F84130002280F842203648E0626285BC
:10288000626C11436164283BDBB2022B22D8032126
:102890002046FFF779FC282384F841300023236386
:1028A0002D4B636323681A6812F4804F22D01A6894
:1028B00022F480421A60A36B5BB1284A9A6300231A
:1028C00084F84030A06BFFF7E4F810B1A06B836B85
:1028D000984710BD07212046FFF756FC94F8413079
:1028E000DBB2602B02D0202384F841300023236325
:1028F0006363D7E71A6812F4004F14D01A6822F401
:1029000000421A60E36B002BE3D0144A9A63002361
:1029100084F84030E06BFFF7BCF80028D9D0E06BBA
:10292000836B9847D5E794F84130DBB2602B06D033
:10293000002384F840302046FFF796FFC9E72023A4
:1029400084F84130002384F840302046FFF78DFFA3
:10295000BFE700BF0000FFFF812A000865300008C4
:1029600070B504460D4603681E682022DA6107210F
:10297000FFF70AFC2268536843F40043536022685F
:10298000536823F0FF7323F48B3323F4FF7323F096
:10299000010353602046FFF78AFB16F4804F3AD0BC
:1029A000A36B1BB11B685B689BB2638515F0040FBA
:1029B00010D025F0040523685A6A636A1A70636AA6
:1029C00001336362238D2BB1013B2385638D013B72
:1029D0009BB26385638D9BB21BB1636C43F00403B0
:1029E00063640023236384F842306363636CEBB950
:1029F000E36A13F5803F27D194F84130DBB2222BF4
:102A000031D0202384F84130002384F84030204620
:102A1000FFF775FE26E016F4004FC7D0E36B002BDE
:102A2000C4D01B685B689BB26385BFE7616C2046BE
:102A3000FFF71CFF94F84130DBB2282B12D1294656
:102A40002046FFF7DDFE0DE02046FFF75AFE0B4B58
:102A5000E362202384F84130002384F8403020468C
:102A6000FFF7CCFE70BD202384F84130002384F8AA
:102A700040302046FFF744FEF4E700BF0000FFFFB0
:102A800070B51646C26A90F84030012B00F09D8068
:102A900004460D46012380F8403011F0100F3FD05E
:102AA00016F0100F3CD0438D9BB24BBB90F84130D9
:102AB000DBB2282B11D094F84130DBB2292B12D095
:102AC00023681022DA6115F0200F02D016F0200FD3
:102AD00076D1002084F8400070BDB2F1007FEAD1C9
:102AE000FFF78EFEEFE712F5803FE9D02368102252
:102AF000DA612046FFF7DBFA2046FFF702FEE2E745
:102B000003681021D961436C43F00403436412B19C
:102B1000B2F1807FD7D1616C2046FFF7A7FED2E7E4
:102B200015F0040F20D016F0040F1DD0638D9BB25A
:102B30007BB125F004052368596A636A1970636ADA
:102B400001336362238D013B2385638D013B9BB27F
:102B50006385638D9BB2002BB5D112F5803FB2D057
:102B60002046FFF7CEFDAEE715F0080F02D016F0B5
:102B7000080F17D115F0020FA5D016F0020FA2D042
:102B8000638D9BB29BB1626A236812789A62636A12
:102B900001336362638D013B9BB26385238D013BEF
:102BA000238590E729462046FFF7DAFD8BE7B2F14F
:102BB000807F01D0002A86D12046FFF7A2FD82E760
:102BC00029462046FFF7CCFE83E7022084E710B5B4
:102BD000044603682022DA610268536823F0FF7319
:102BE00023F48B3323F4FF7323F00103536000239A
:102BF00003634363A3F58033C36211F0100F06D063
:102C000003681022DA61436C43F0040343642046F6
:102C1000FFF74DFA03212046FFF7B6FA626C94F8ED
:102C20004130DBB2602B1BD0D2B994F84130DBB21B
:102C3000212B1AD094F84130DBB2222B14D120235F
:102C400084F8413094F84230DBB2402B27D0002387
:102C500084F8423084F840302046FFF725FD03E039
:102C6000616C2046FFF702FE10BD202384F841303E
:102C700094F84230DBB2402B08D0002384F8423075
:102C800084F84030204603F01FFFEDE7002384F86E
:102C9000423084F840302046FFF7E4FDE4E70023AB
:102CA00084F8423084F840302046FFF7DCFDDBE753
:102CB00090F84030012B00F0B78070B582B0044628
:102CC0000D461646012380F8403011F0100F02D057
:102CD00012F0100F21D115F0040F28D016F0040FB8
:102CE00025D025F0040523685A6A636A1A70636A5E
:102CF00001336362238D013B2385638D013B9BB2CE
:102D0000638515F0200F03D016F0200F40F0878068
:102D1000002084F8400002B070BD03681022DA6120
:102D2000436C43F004034364FFF7C1F9E9E715F08E
:102D3000020F11D016F0020F0ED0626A23681278CB
:102D40009A62636A01336362238D013B2385638D3D
:102D5000013B9BB26385D4E715F0800F3FD016F09E
:102D6000400F3CD0638D9BB25BB3238D4BBB23687C
:102D70005968C1F30901638D9BB2FF2B0ED8628D98
:102D800092B22285E36A13F5803F11D0E36A0020F6
:102D90000090D2B22046FFF79BF9B2E7FF222285CE
:102DA000002300934FF080732046FFF791F9A8E7C6
:102DB000002300934FF00073D2B22046FFF788F94A
:102DC0009FE723685B6813F0007F03D12046FFF77D
:102DD0006CFC96E740212046FFF748FD91E715F08F
:102DE000400F8ED016F0400F8BD0638D9BB28BB905
:102DF00023685A6812F0007F83D1E26A12F5803F9F
:102E000004D15A6842F480425A607AE72046FFF7BC
:102E10004CFC76E740212046FFF728FD71E7294664
:102E20002046FFF7D4FE73E70220704738B5C56A25
:102E300090F84030012B73D00446012380F84030D5
:102E400011F0100F54D012F0100F51D0C2F3803394
:102E500013B912F4004F47D0E06B38B112F4004FB1
:102E600006D002685268DAB1002002E0002000E0DB
:102E70000020A26B1AB113B113685B6893B188B9D3
:102E800023681022DA61636C43F00403636415B1B4
:102E9000B5F1807F38D1616C2046FFF7E7FC33E065
:102EA0000120E6E794F84130DBB2282B08D094F8F3
:102EB0004130DBB2292B0AD023681022DA6123E0EB
:102EC000B5F1007FF3D12046FFF79AFC1CE015F521
:102ED000803FF1D023681022DA612046FFF7E7F83F
:102EE0002046FFF70EFC0FE003681022DA610BE0CA
:102EF00011F0080F02D012F0080F09D111F0200FC5
:102F000002D012F0200F07D1002084F8400038BD15
:102F10002046FFF725FCF7E72046FFF721FDF3E702
:102F20000220F4E790F84030012B00F0998010B5B2
:102F300082B00446012380F8403011F0100F02D017
:102F400012F0100F31D111F0800F5FD012F0400F4E
:102F50005CD02268136823F040031360638D9BB23A
:102F6000002B45D023685968C1F30901638D9BB2DA
:102F7000FF2B2CD9FF2323854FF0807394F8282052
:102F8000002000902046FFF7A3F8638D228D9B1A46
:102F90009BB2638594F84130DBB2222B22D02268A9
:102FA000136843F4804313600CE003681022DA6175
:102FB000436C43F0040343641221FFF7A5F8204655
:102FC000FFF775F8002084F8400002B010BD638D53
:102FD0002385E36A13F5803F01D0E36ACEE74FF023
:102FE0000073CBE72268136843F400431360E9E7FA
:102FF00023685B6813F0007F03D12046FFF755FB81
:10300000E0E740212046FFF731FCDBE711F0400FFD
:103010001CD012F0400F19D0638D9BB28BB923687E
:103020005A6812F0007FCDD1E26A12F5803F04D1D8
:103030005A6842F480425A60C4E72046FFF735FBE5
:10304000C0E740212046FFF711FCBBE711F0200F3D
:10305000B8D012F0200FB5D02046FFF7B8FDB1E789
:103060000220704708B5806A826B00239363C26BAD
:10307000936390F84130DBB2602B02D0FFF7F4FB92
:1030800008BD202380F84130FFF7EFFBF8E790F808
:103090004130DBB2202B24D190F84030012B22D0DC
:1030A000012380F84030242380F8413002681368FF
:1030B00023F0010313600268136823F48053136044
:1030C00002681368194311600268136843F0010332
:1030D0001360202380F84130002380F840301846E8
:1030E0007047022070470220704790F84130DBB2F1
:1030F000202B22D190F84030012B20D0012380F8E2
:103100004030242380F841300268136823F0010323
:1031100013600268136823F4706343EA01211160AD
:103120000268136843F001031360202380F84130E4
:10313000002380F840301846704702207047022074
:103140007047000082B0084B1A6E42F001021A6606
:103150001B6E03F001030193019B044A536818435B
:10316000506002B0704700BF0010024000000140F4
:10317000F0B587B000287AD0044690F82932D3B150
:10318000032384F82932206801F026FC254655F8EF
:10319000107B6E460FCD0FC62B683360231D0ECB00
:1031A000384601F008FC58B1022384F82932012581
:1031B000284607B0F0BD80F8283204F039FBDFE77D
:1031C0000021206801F012FC002311E004EB4312FF
:1031D000012182F8291082F82830D386002182F854
:1031E0002B109163D1639A1C5201A1500133DBB2C1
:1031F00060688342EAD3002312E004EB431100220B
:1032000081F8292181F8283181F82B21C1F8382152
:10321000C1F83C2103F10A01490162500133DBB2DC
:103220009842EAD8254655F8107B6E460FCD0FC65A
:103230002B683360231D0ECB384601F0D9FB0546C1
:1032400060B9002384F82430012384F82932E3692B
:10325000012B08D0206801F0FBFEA9E7022384F8C7
:1032600029320125A4E7204600F0EBFBF2E7012517
:103270009EE790F82832012B0ED010B504460123AA
:1032800080F82832006801F0DBFE206801F09AFB2C
:10329000002084F8280210BD0220704790F82832E0
:1032A000012B0DD010B50446012380F8283280F898
:1032B0002410006801F0BEFE002084F8280210BD32
:1032C0000220704770B511F0800F23D101F007057F
:1032D0006D0105F5947404440544002685F82961C0
:1032E00001F0070121702261E370627802B1E1818F
:1032F000022B1AD090F82832012B19D00546012351
:1033000080F828322146006801F088FB002085F80B
:10331000280270BD01F007056D0105F12804044481
:103320000544012685F82960DAE700232371E1E7E7
:103330000220EEE710B511F0800F1CD101F0070359
:103340005B0103F5947202440344002483F829418D
:1033500001F00703137090F82832012B16D00446B1
:10336000012380F828321146006801F002FD002098
:1033700084F8280210BD01F007035B0103F1280265
:1033800002440344012483F82940E1E70220F1E7E5
:1033900070B501F007056C0104F594710144044413
:1033A000C4F83C2105F10A0252018618835000231B
:1033B000736084F8293184F8285125B1006801F040
:1033C00069FE002070BD006801F064FEF9E701F0BD
:1033D00007010A3100EB41114868704770B501F0F0
:1033E00007056C0104F1280101440444E263AA1CAE
:1033F00052018618835000237360012384F829301A
:1034000084F8285025B1006801F044FE002070BD0A
:10341000006801F03FFEF9E7F8B504462068B0F80F
:10342000443013F4004F00F09581B0F844309BB263
:1034300013F00F0540F0BD8013F0100F52D0038839
:103440009BB213F4006F40F0818013F4004FE5D07D
:10345000038823F070031B051B0D43F080030380DA
:103460002068B0F8503094F8282103EBC2030344DD
:10347000B3F80634C3F30903C4F844318BB1D4F86C
:103480003C1171B1B4F82E2101F05DFFD4F8442154
:10349000D4F83C311344C4F83C310021204604F0F8
:1034A0000DFA2368B3F850201344D4F83821002AC9
:1034B0006CD1B3F8062422F4F8426FEA42426FEA74
:1034C0005242A3F80624226813889BB223F4804357
:1034D00023F0700383F4405343F4004343F080032C
:1034E00013809BE703889BB223F4E14323F070032E
:1034F0006FEA43436FEA53439BB203802268B2F8FA
:10350000503094F8281003EBC1031344B3F802348D
:10351000C3F309036364E26B1344E36300212046B1
:1035200004F0D6F994F82430002B3FF477AF236CE5
:10353000002B7FF473AF94F82430226843F08003AB
:10354000A2F84C30002384F8243067E7B0F85030FC
:1035500094F8282103EBC2030344B3F80634C3F301
:103560000903C4F84431B4F82E2104F50C7101F0BC
:10357000EAFE2268138823F070031B051B0D43F03D
:1035800080031380204604F091F947E73D2A08D8CC
:10359000510812F0010F00D001318902A3F806147E
:1035A00091E752096FEAC2626FEA5242A3F8062419
:1035B00089E730F82560B6B216F4004F31D116F025
:1035C000800F3FF42BAF226832F825309BB223F4F2
:1035D000E14323F070036FEA43436FEA53439BB226
:1035E00022F825302268B2F8503004EB451090F8EC
:1035F000281003EBC1031344B3F80224C2F30902F9
:10360000AB1C5B01E1184A60C16B0A44C263E3581A
:10361000002B40F0978090F82810204604F058F9CD
:10362000FCE630F8253023F070031B051B0D43F03A
:10363000800320F8253004EB451393F83431C3B9E7
:103640002068B0F8503004EB451292F8282103EBC3
:10365000C2030344B3F80674C7F309077FB304EB4E
:1036600045113B46B1F82E21D1F83C1101F06BFE1B
:1036700025E0206804EB451393F8282130F8223028
:1036800013F4804F41D0B0F8503003EBC203034431
:10369000B3F80274C7F309076FBB226804EB451344
:1036A00093F8281132F821309BB223F4E04323F041
:1036B000700343F4004343F0C00322F8213005F1C6
:1036C0000A035B01E1184A683A444A6004EB451179
:1036D000D1F83C213A44C1F83C21E3581BB1D1F860
:1036E00038118F4226D204EB451393F82811204657
:1036F00004F0E4F863E704EB45113B46B1F83021F0
:10370000D1F83C1101F01FFEC7E7B0F8503003EBD1
:10371000C2030344B3F80674C7F30907002FBCD0F3
:1037200004EB45113B46B1F83221D1F83C1101F0D0
:103730000AFEB2E704EB451191F828112046FFF785
:1037400027FE3CE704EB451595F828102046FFF7C7
:1037500045FE63E60020F8BD10B50446006801F0A0
:103760007FFC10F4004F40F09880206801F078FC56
:1037700010F4806F40F09580206801F071FC10F427
:10378000804F08D02268B2F844309BB223F48043C3
:103790009BB2A2F84430206801F062FC10F4005F94
:1037A00008D02268B2F844309BB223F400539BB295
:1037B000A2F84430206801F053FC10F4805F21D05F
:1037C0002268B2F840309BB223F004039BB2A2F807
:1037D00040302268B2F840309BB223F008039BB21D
:1037E000A2F8403094F86032012B6BD0204604F0F0
:1037F0009FF82268B2F844309BB223F480539BB206
:10380000A2F84430206801F02BFC10F4006F60D166
:10381000206801F025FC10F0800F28D02268B2F853
:1038200044309BB223F080039BB2A2F8443094F85A
:103830006032002B6ED12268B2F8403043F00403AE
:10384000A2F840302268B2F8403043F00803A2F8F2
:103850004030012184F860122368B3F854309B088B
:1038600003F03C03C4F86432204604F047F92068B2
:1038700001F0F6FB10F4007F50D1206801F0F0FB5E
:1038800010F4807F08D02268B2F844309BB223F451
:1038900080739BB2A2F8443010BD2046FFF7BCFDF8
:1038A00063E72268B2F844309BB223F480639BB292
:1038B000A2F84430204604F01AF800212046FFF711
:1038C000EDFC59E7002184F86012204604F016F957
:1038D0008CE72268B2F8403043F00803A2F8403089
:1038E0002268B2F844309BB223F400639BB2A2F882
:1038F00044302268B2F8403043F00403A2F840306C
:10390000206801F0ADFB10F4805F81D1204603F008
:10391000FFFF7DE7204603F0FBFFA8E72268B2F82F
:1039200044309BB223F400739BB2A2F8443020468B
:1039300003F0D7FFA1E738B501F0070543689D42C2
:103940002CD811F0800F1AD14B0103F5947101446A
:103950000344002283F8292101238B700D7090F815
:103960002832012B1CD00446012380F8283200683D
:1039700001F0EAFA65B1002084F828020FE06B013B
:1039800003F1280101440344012283F82920E3E7DD
:1039900004F50C71206801F066FBECE7012038BDEE
:1039A0000220FCE701F00F0243689A422DD810B5BF
:1039B00011F0800F1ED101F007035B0103F5947233
:1039C00002440344002483F829410023937001F04A
:1039D0000703137090F82832012B18D004460123F6
:1039E00080F828321146006801F0D3FA002084F8EC
:1039F000280210BD01F007035B0103F12802024415
:103A00000344012483F82940DFE7012070470220A6
:103A1000EFE711F0800F0CD001F0070149012831C8
:103A200001445AB101220A730B811B0C4B81002007
:103A30007047490101F594710144F2E70A73CB80A4
:103A4000F5E7024603680121C0F86812002082F8F9
:103A50006002B3F854200A43A3F85420B3F854206A
:103A600042F00202A3F8542070470000024B18688D
:103A700000F4C060704700BF00700040B0F5007FE8
:103A80000FD01F4B1B6803F4C063B3F5806F34D0B5
:103A90001B4A136823F4C06343F48063136000205F
:103AA0007047174B1B6803F4C063B3F5007F22D047
:103AB000134A136823F4C06343F400731360114B7B
:103AC0001A68322303FB02F30F4AA2FB03239B0C69
:103AD000013300E0013B0A4A526912F4806F01D0C1
:103AE000002BF7D1064B5B6913F4806F01D10020E6
:103AF000704703207047002070470020704700BFC8
:103B0000007000405401002083DE1B43024A5368CA
:103B100043F48063536070470070004030B583B059
:103B20000546204B9B6D13F0805F0BD0FFF79EFF87
:103B3000B0F5007F17D0802D1FD82DD0702D2DD03F
:103B400000211BE0174CA36D43F08053A365A36DC8
:103B500003F080530193019BFFF788FFA36D23F0CF
:103B60008053A365E4E7802D03D9A02D03D902215A
:103B700004E0002102E0012100E003210A4A136869
:103B800023F007030B431360136803F007038B4212
:103B900006D0012003B030BD0221EFE70121EDE79F
:103BA0000020F7E70010024000200240284A9368F6
:103BB000D26802F0030213F00C030AD00C2B06D0DB
:103BC000042B1FD0082B20D00020024610E0012A31
:103BD000F6D11F4A126812F0080F0CD11C4AD2F815
:103BE0009420C2F303221B4951F8222043B1002044
:103BF0000C2B0DD07047164A1268C2F30312F2E77D
:103C00001046F5E714480022F2E714480022EFE7D7
:103C10000F4BDB6803F00303022B15D0032B15D0E9
:103C20000B4BD868C0F302100130D968C1F30621EC
:103C300002FB01F2B2FBF0F2D868C0F34160013040
:103C40004000B2FBF0F0D5E7034AE9E7034AE7E7B3
:103C500000100240A4B300080024F40000127A000F
:103C6000002800F03883F0B583B00446954B9D687A
:103C700005F00C05DE6806F00306036813F0100F6C
:103C80005ED0E5B10C2D18D0E369002B00F0B880B0
:103C90008C4A136843F001031360FDF719F80746D7
:103CA000884B1B6813F0020F40F09780FDF710F867
:103CB000C01B0228F4D903231BE3012EE4D1814B5E
:103CC0001B6813F0020F03D0E369002B00F006839A
:103CD000606A7C4B1B6813F0080F5ED0794B1B6841
:103CE00003F0F00398425FD9FFF718FF002840F077
:103CF000F782744B1A6842F008021A601A6822F0C0
:103D0000F002616A0A431A605A6822F47F42216A0B
:103D100042EA01225A60FFF749FF6A4B9B68C3F3EE
:103D20000313694AD35C03F01F03D840674B186044
:103D3000674B1868FCF788FF0346002840F0D982DB
:103D4000236813F0010F7AD0082D6FD00C2D6BD0A3
:103D50006368B3F5803F00F09280B3F5A02F00F0C8
:103D60009480584B1A6822F480321A601A6822F440
:103D700080221A606368002B00F09480FCF7A8FF93
:103D80000746504B1B6813F4003F58D1FCF7A0FFC7
:103D9000C01B6428F5D90323ABE24A4BD3F8943017
:103DA0001B0903F0F0039DE7464B1A6842F0080236
:103DB0001A601A6822F0F002616A0A431A605A68AF
:103DC00022F47F42216A42EA01225A60606AFFF7C8
:103DD000A5FE00289FD001238BE23A4B1A6842F0DF
:103DE00008021A601A6822F0F002616A0A431A6037
:103DF0005A6822F47F42216A42EA01225A609FE710
:103E0000304A136823F001031360FCF761FF074693
:103E10002C4B1B6813F0020F92D0FCF759FFC01B0C
:103E20000228F5D9032364E2032E91D1254B1B68A8
:103E300013F4003F03D06368002B00F05382236823
:103E400013F0020F59D0042D46D00C2D42D0E36858
:103E5000002B00F092801B4A136843F480731360B8
:103E6000FCF736FF0646174B1B6813F4806F7BD1B7
:103E7000FCF72EFF801B0228F5D9032339E2114AF3
:103E8000136843F48033136074E703F18043A3F5B0
:103E90003C331A6842F480221A601A6842F4803275
:103EA0001A6067E7FCF714FF0746064B1B6813F41C
:103EB000003FC4D0FCF70CFFC01B6428F5D90323D6
:103EC00017E200BF0010024094B300085401002024
:103ED00004000020022EBAD1AF4B1B6813F4806F90
:103EE00003D0E368002B00F0FF81AB4A536823F056
:103EF000FE43216943EA01635360236813F0080F0E
:103F00007DD06369002B63D0A34BD3F89430A169B3
:103F100003F01002914210D003F00302022A00F0D5
:103F2000E58113F0010F3CD19B4AD2F8943023F085
:103F30001003A1690B43C2F89430974AD2F8943029
:103F400043F00103C2F89430FCF7C2FE0646924BE0
:103F5000D3F8943013F0020F51D1FCF7B9FE801B57
:103F60001128F4D90323C4E18B4A536823F0FE439C
:103F7000216943EA01635360BFE7874A136823F46A
:103F800080731360FCF7A4FE0646834B1B6813F492
:103F9000806FB2D0FCF79CFE801B0228F5D903236A
:103FA000A7E17D4AD2F8943023F00103C2F894309F
:103FB000FCF78EFE0646784BD3F8943013F0020FD0
:103FC000B2D0FCF785FE801B1128F4D9032390E1C1
:103FD000714AD2F8943023F00103C2F89430FCF710
:103FE00077FE06466C4BD3F8943013F0020F06D0E0
:103FF000FCF76EFE801B1128F4D9032379E12368B6
:1040000013F0040F00F08D80634B9B6D13F0805F05
:104010002ED1614B9A6D42F080529A659B6D03F0F0
:1040200080530193019B01265C4B1B6813F4807F36
:1040300020D0A36813F0010F38D05749D1F8902051
:1040400022F0800203F080031343C1F89030A3688C
:1040500013F0040F22D0D1F8902042F00402C1F8EE
:104060009020D1F8902042F00102C1F890202AE07F
:104070000026D9E7494A136843F480731360FCF7BC
:1040800027FE0746454B1B6813F4807FD1D1FCF710
:104090001FFEC01B0228F5D903232AE13E4AD2F8AD
:1040A000903043F00103C2F890300CE03A4BD3F863
:1040B000902022F00102C3F89020D3F8902022F043
:1040C0000402C3F89020A3688BB1FCF701FE0746F9
:1040D000314BD3F8903013F0020F21D1FCF7F8FDEB
:1040E000C01B41F288339842F2D9032301E1FCF767
:1040F000EFFD0746284BD3F8903013F0020F08D09D
:10410000FCF7E6FDC01B41F288339842F2D9032345
:10411000EFE0214AD2F8903023F08003C2F89030CB
:10412000E6B9236813F0200F3AD0A36AE3B11A4A24
:10413000D2F8983043F00103C2F89830FCF7C8FD7C
:104140000646154BD3F8983013F0020F28D1FCF730
:10415000BFFD801B0228F4D90323CAE00E4A936DE9
:1041600023F080539365DCE70B4AD2F8983023F0B4
:104170000103C2F89830FCF7ABFD0646064BD3F8B6
:10418000983013F0020F0BD0FCF7A2FD801B022821
:10419000F4D90323ADE000BF0010024000700040DE
:1041A000E36A002B00F0A4800C2D64D0022B1BD0FE
:1041B000534B1A6822F080721A60DA6822F0030208
:1041C000DA60DA6822F08872DA60FCF781FD044672
:1041D0004B4B1B6813F0007F4BD0FCF779FD001BA5
:1041E0000228F5D9032384E0454A136823F080733D
:1041F0001360FCF76DFD0546414B1B6813F0007F13
:1042000006D0FCF765FD401B0228F5D9032370E0BA
:104210003B4AD3683B491940236B606B013843EA42
:104220000013A06B43EA0023E06B4008013843EA27
:104230004053206C4008013843EA40630B43D3608D
:10424000136843F080731360D36843F08073D360C6
:10425000FCF73EFD04462A4B1B6813F0007F06D195
:10426000FCF736FD001B0228F5D9032341E00023AB
:104270003FE000233DE0012B3ED0214BDB6803F003
:104280000301226B914201D0012332E003F070025E
:10429000616B0139B2EB011F01D0012329E003F466
:1042A000FE42A16BB2EB012F01D0012321E003F408
:1042B000C001E26B5208013AB1EB425F01D0012329
:1042C00017E003F0C063226C5208013AB3EB426F6F
:1042D00014D001230DE0012318467047012308E0A4
:1042E000012306E0012304E0012302E0012300E0B2
:1042F0000023184603B0F0BD0123FAE70023F8E7D6
:10430000001002408C809FF9002800F09B8070B55F
:1043100004464E4B1B6803F007038B420CD24B4AFA
:10432000136823F007030B431360136803F00703BC
:104330008B4201D0012070BD0D46236813F0010FA0
:1043400039D06368032B09D0022B26D063BB404AC7
:10435000126812F0020F06D10120ECE73C4A126805
:1043600012F0007F70D03A498A6822F003021343AA
:104370008B60FCF7ADFC0646354B9B6803F00C03E5
:104380006268B3EB820F16D0FCF7A2FC801B41F2EF
:1043900088339842F0D90320CDE72D4A126812F4F1
:1043A000003FE0D10120C6E7294A126812F4806F6D
:1043B000D9D10120BFE7236813F0020F06D0244AA9
:1043C000936823F0F003A1680B4393601F4B1B68B5
:1043D00003F00703AB420CD91C4A136823F0070310
:1043E0002B431360136803F00703AB4201D0012095
:1043F000A1E7236813F0040F06D0154A936823F44D
:10440000E063E1680B439360236813F0080F07D063
:104410000F4A936823F46053216943EAC103936010
:10442000FFF7C4FB0A4B9B68C3F30313094AD35C31
:1044300003F01F03D840084B1860084B1868FCF7BE
:1044400003FC78E701207047012074E70020024058
:104450000010024094B30008540100200400002022
:10446000F0B583B00446036813F4003F69D0874B6E
:104470009B6D13F0805F1ED1844B9A6D42F0805289
:104480009A659B6D03F080530193019B0126804A3E
:10449000136843F480731360FCF71AFC05467C4BE9
:1044A0001B6813F4807F08D1FCF712FC401B022824
:1044B000F5D9032502E00026E9E7002545BB734B4B
:1044C000D3F8903013F4407315D0226B9A4212D077
:1044D0006E4AD2F8903023F44073D2F8901041F431
:1044E0008031C2F89010D2F8901021F48031C2F8D7
:1044F0009010C2F8903013F0010F10D145B9634A03
:10450000D2F8903023F44073216B0B43C2F8903003
:10451000C6B15E4A936D23F08053936512E0FCF7B9
:10452000D7FB0746594BD3F8903013F0020FE5D173
:10453000FCF7CEFBC01B41F288339842F2D9032529
:10454000DCE70025236813F0010F08D04F4AD2F8AA
:10455000883023F0030361680B43C2F88830236876
:1045600013F0020F08D0494AD2F8883023F00C0328
:10457000A1680B43C2F88830236813F0040F08D0F9
:10458000424AD2F8883023F03003E1680B43C2F886
:104590008830236813F0200F08D03C4AD2F88830C6
:1045A00023F4406321690B43C2F88830236813F475
:1045B000007F08D0354AD2F8883023F44023216A9E
:1045C0000B43C2F88830236813F4806F08D02F4A59
:1045D000D2F8883023F44013616A0B43C2F8883064
:1045E000236813F0400F08D0284AD2F8883023F40B
:1045F000405361690B43C2F88830236813F0800F81
:1046000008D0224AD2F8883023F44043A1690B43F2
:10461000C2F88830236813F4807F08D01B4AD2F890
:10462000883023F44033E1690B43C2F888302368B3
:1046300013F4005F0CD0154AD2F8883023F04063A1
:10464000A16A0B43C2F88830A36AB3F1006F13D09C
:10465000236813F4802F0CD00C4AD2F8883023F052
:104660004063E16A0B43C2F88830E36AB3F1006F3C
:1046700007D0284603B0F0BDD36843F48013D3605D
:10468000E6E7D36843F48013D360F2E700100240FA
:1046900000700040104B9A6B42F080729A639A6BE4
:1046A00022F080729A6303684268134382681A4357
:1046B000C3681343026943EA0242084B5A601A680E
:1046C00022F4FE42416942EA01221A601A6842F06D
:1046D00060021A60704700BF001002400060004096
:1046E0000268D36843F00103D36002689168064B07
:1046F0000B40062B06D0B3F5803F03D0136843F080
:1047000001031360002070470700010070477047E5
:104710007047704710B5044603681A6912F0020F1B
:1047200011D0DA6812F0020F0DD06FF002021A6198
:104730000123037703689B6913F0030F79D0FFF718
:10474000E6FF0023237723681A6912F0040F12D0C2
:10475000DA6812F0040F0ED06FF004021A6102231F
:10476000237723689B6913F4407F68D02046FFF7C6
:10477000CEFF0023237723681A6912F0080F12D0A6
:10478000DA6812F0080F0ED06FF008021A610423E5
:1047900023772368DB6913F0030F57D02046FFF718
:1047A000B6FF0023237723681A6912F0100F12D086
:1047B000DA6812F0100F0ED06FF010021A610823A1
:1047C00023772368DB6913F4407F46D02046FFF748
:1047D0009EFF0023237723681A6912F0010F03D08C
:1047E000DA6812F0010F3FD123681A6912F0800FC6
:1047F00003D0DA6812F0800F3DD123681A6912F4F1
:10480000807F03D0DA6812F0800F3BD123681A69E9
:1048100012F0400F03D0DA6812F0400F39D123684C
:104820001A6912F0200F03D0DA6812F0200F37D186
:1048300010BDFFF76BFF2046FFF76AFF81E72046B8
:10484000FFF764FF2046FFF763FF92E72046FFF77C
:104850005DFF2046FFF75CFFA3E72046FFF756FF0A
:104860002046FFF755FFB4E76FF001021A612046BA
:1048700002F0DAF8B8E76FF080021A61204600F023
:1048800098F8BAE76FF480721A61204600F092F847
:10489000BCE76FF040021A612046FFF73AFFBEE71F
:1048A0006FF020021A61204600F082F8C0E7000095
:1048B00003681A4A904202D0B0F1804F03D123F02E
:1048C00070034A681343154A90420AD0B0F1804FF2
:1048D00007D002F5A052904203D002F580629042C8
:1048E00003D123F44073CA68134323F080034A6959
:1048F000134303608B68C3620B688362074B984263
:1049000007D003F5A053984203D003F58063984283
:1049100001D10B690363012343617047002C0140FF
:10492000A8B110B5044690F83D305BB1022384F87D
:104930003D30211D2068FFF7BBFF012384F83D3087
:10494000002010BD80F83C3002F0D2FBEEE70120E1
:104950007047000090F83C30012B25D030B4012383
:1049600080F83C30022380F83D3002685368956837
:104970000E4CA24213D023F070030C68234325F0A1
:10498000800489682143536003689960012380F89B
:104990003D30002380F83C30184630BC704723F48B
:1049A00070034C682343E6E702207047002C014067
:1049B00070477047704784B001A880E80E0000205F
:1049C00004B07047B0F8403043F43F4343F08003F5
:1049D000A0F8403000207047B0F8403023F47E53F8
:1049E0005B045B0CA0F8403000207047002070474B
:1049F00084B038B505AC84E80E000123A0F840303F
:104A00000024A0F84040A0F84440A0F85040FFF730
:104A1000D9FF2046BDE8384004B0704730B40346A3
:104A20000A7830F82240A4B224F4EC4424F0700454
:104A3000A4B2C87803285BD8DFE800F04E560252D3
:104A4000002048F280052C4323F822400C7833F8EC
:104A5000242012B222F4E04222F07002224392B2E9
:104A60002A4323F824200A7B002A40F0A7804A78B2
:104A7000002A4ED0B3F850201A440C7802EBC4023E
:104A8000CC8864086400A2F800440C7833F8242031
:104A900012F0400F0CD033F8242092B222F4E042FE
:104AA00022F0700242F4004242F0C00223F82420B7
:104AB000CA78012A1ED0097833F8212092B222F454
:104AC000E04222F0400282F0200242F4004242F032
:104AD000800223F821205CE044F400740020B0E759
:104AE00044F4C0640020ACE744F480640020A8E7EC
:104AF0000120A6E7097833F8212092B222F4E0429F
:104B000022F0400242F4004242F0800223F82120C9
:104B10003FE0B3F850201A440C7802EBC402CC8872
:104B200064086400A2F80444B3F850201A440C78D6
:104B300002EBC4020C6974BBB2F8064424F4F844D6
:104B40006FEA44446FEA5444A2F806440C7833F800
:104B5000242012F4804F0CD033F8242092B222F497
:104B6000E04222F0700242F4404242F0800223F818
:104B70002420097833F8212092B222F4804222F0D6
:104B8000700282F4405242F4004242F0800223F864
:104B9000212030BC70473D2C08D8650814F0010F67
:104BA00000D00135AD02A2F80654CFE764096FEAE0
:104BB000C4646FEA5444A2F80644C7E70C7833F89B
:104BC000242092B222F4E04222F0700242F4014228
:104BD00042F0800223F82420B3F850201A440C78C5
:104BE00002EBC4020C8964086400A2F80044B3F824
:104BF00050201A440C7802EBC4024C89640864000B
:104C0000A2F804444A78002A4ED10C7833F82420C4
:104C100012F4804F0CD033F8242092B222F4E042F8
:104C200022F0700242F4404242F0800223F8242035
:104C30000C7833F8242012F0400F0CD033F82420E5
:104C400092B222F4E04222F0700242F4004242F0BA
:104C5000C00223F824200C7833F8242092B222F4E6
:104C6000E04222F0700242F4004242F0C00223F817
:104C700024200D7833F8252092B222F4804222F0CD
:104C8000700282F4405248F28004224323F8252027
:104C9000097833F8212092B222F4E04222F0400257
:104CA000224323F8212074E70C7833F8242012F4EF
:104CB000804F0CD033F8242092B222F4E04222F04C
:104CC000700242F4404242F0800223F824200C7823
:104CD00033F8242012F0400F0CD033F8242092B285
:104CE00022F4E04222F0700242F4004242F0C0029C
:104CF00023F824200C7833F8242092B222F4E042E6
:104D000022F0700242F4404242F0800223F8242054
:104D1000CA78012A1ED00C7833F8242092B222F4EB
:104D2000E04222F0400282F0200242F4004242F0CF
:104D3000800223F82420097833F8212092B222F44B
:104D4000804222F0700242F4004242F0800223F8D6
:104D500021201EE70C7833F8242092B222F4E0429E
:104D600022F0400242F4004242F0800223F8242064
:104D7000E1E70B7B002B46D14B7813B30A7830F870
:104D8000223013F0400F0CD030F822309BB223F4C5
:104D9000E04323F0700343F4004343F0C00320F8E2
:104DA00022300A7830F822309BB223F4E04323F01B
:104DB000400343F4004343F0800320F822300020F6
:104DC00070470A7830F8223013F4804F0CD030F856
:104DD00022309BB223F4E04323F0700343F44043BA
:104DE00043F0800320F822300A7830F822309BB25A
:104DF00023F4804323F0700343F4004343F0800323
:104E000020F82230DBE710B44B78002B4FD10A7822
:104E100030F8223013F4804F0CD030F822309BB29F
:104E200023F4E04323F0700343F4404343F0800352
:104E300020F822300A7830F8223013F0400F0CD0DE
:104E400030F822309BB223F4E04323F0700343F4A4
:104E5000004343F0C00320F822300A7830F82230B3
:104E60009BB223F4E04323F0700343F4004343F088
:104E7000C00320F822300B7830F8232092B222F4BD
:104E8000804222F0700248F28004224320F823205E
:104E90000A7830F822309BB223F4E04323F0400339
:104EA000234320F8223000205DF8044B70470A7835
:104EB00030F8223013F4804F0CD030F822309BB2FF
:104EC00023F4E04323F0700343F4404343F08003B2
:104ED00020F822300A7830F8223013F0400F0CD03E
:104EE00030F822309BB223F4E04323F0700343F404
:104EF000004343F0C00320F822300A7830F8223013
:104F00009BB223F4E04323F0700343F4404343F0A7
:104F1000800320F822300B7830F8232092B222F45C
:104F2000E04222F0400248F28004224320F823208D
:104F30000A7830F822309BB223F4804323F07003C8
:104F4000234320F82230AEE74B788BB90A7830F84B
:104F500022309BB223F4804323F0700383F4805308
:104F600043F4004343F0800320F8223000207047D0
:104F70000A7830F822309BB223F4E04323F0400358
:104F800083F0100343F4004343F0800320F8223001
:104F9000ECE70B7B002B4BD14B7833B30A7830F81E
:104FA000223013F0400F0CD030F822309BB223F4A3
:104FB000E04323F0700343F4004343F0C00320F8C0
:104FC0002230CB78012B33D00A7830F822309BB2D4
:104FD00023F4E04323F0400383F0200343F4004331
:104FE00043F0800320F8223022E00A7830F82230A3
:104FF00013F4804F0CD030F822309BB223F4E043FE
:1050000023F0700343F4404343F0800320F8223040
:105010000A7830F822309BB223F4804323F07003E7
:1050200083F4405343F4004343F0800320F82230DC
:105030000020704711B98023A0F84C300020704741
:10504000B0F8583043F40043A0F8583000207047BF
:10505000B0F85830C3F30E03A0F858300020704762
:10506000B0F8440070470020704701335B080244E9
:1050700002F580626BB110B40C78487844EA0024E1
:1050800022F8024B0231013B002BF5D15DF8044BB5
:105090007047704770B54E78012E2FD08A690B6922
:1050A0009A4240F2E180D21A8A610A7B002A40F0DB
:1050B000F280B0F8502002440C7802EBC402002BBE
:1050C00040F0D680B2F8063423F4F8436FEA434345
:1050D0006FEA5343A2F806340A7830F822309BB2C4
:1050E00023F4804323F0700383F4405343F40043DC
:1050F00043F0800320F82230002070BD8A690B69DC
:105100009A421DD9D21A8A610C4605460A7BDAB149
:105110000A7830F8221011F0400F66D0B6BBB0F814
:105120005010014401EBC202EBB9B2F8061421F4AD
:10513000F8416FEA41416FEA5141A2F806142CE0B0
:1051400000238B611346DFE79EB23346CA88496964
:10515000FFF78BFFB5F850302B44227803EBC203E6
:10516000A3F8026430E03D2B08D8590813F0010F72
:1051700000D001318902A2F806140EE059096FEA45
:10518000C1616FEA5141A2F8061406E0B0F8501070
:10519000014401EBC202A2F8063462899BB2616944
:1051A0002846FFF762FF6378002B4CD1227835F850
:1051B00022309BB223F4E04323F0700343F4004316
:1051C00043F0C00325F82230227835F822309BB214
:1051D00023F4E04323F0400383F0300343F400431F
:1051E00043F0800325F8223086E71EBBB0F850104C
:1051F000014401EBC20253B9B2F8021421F4F841A0
:105200006FEA41416FEA5141A2F8021419E03D2BC7
:1052100008D8590813F0010F00D001318902A2F813
:1052200002140EE059096FEAC1616FEA5141A2F818
:10523000021406E0B0F85010014401EBC202A2F8DB
:1052400002342289AAE7012BBED1227835F8223018
:105250009BB223F4E04323F0700343F4404343F054
:10526000800325F82230AFE700238B6113461CE74B
:105270003D2B08D85C0813F0010F00D00134A402C4
:10528000A2F8064428E75B096FEAC3636FEA534359
:10529000A2F8063420E786B9B0F8502002440C7812
:1052A00002EBC402EBB9B2F8024424F4F8446FEA0A
:1052B00044446FEA5444A2F802444A78BABBB0F8B6
:1052C000502002440C7802EBC402EBB9B2F8063469
:1052D00023F4F8436FEA43436FEA5343A2F80634DA
:1052E000FAE63D2B08D85C0813F0010F00D001341A
:1052F000A402A2F80244E0E75C096FEAC4646FEA22
:105300005444A2F80244D8E73D2B08D85C0813F0B7
:10531000010F00D00134A402A2F80644DCE65B09C8
:105320006FEAC3636FEA5343A2F80634D4E6012A56
:105330007FF4D2AEB0F8502002440C7802EBC402E5
:10534000A2F80634C8E630B45D08024402F5806273
:1053500006E032F8024B0C70240A4C700231013D19
:10536000002DF6D113F0010F01D013780B7030BC73
:10537000704710B5D0F89042D0F894325BB194F8F1
:105380000002FF2807D09B6894F801222146984725
:10539000FF2384F80032002010BD00004323038067
:1053A0000048704760000020432303800048704796
:1053B000A40000204323038000487047F40000202D
:1053C0000A23038000487047E800002038B50446EF
:1053D000D0F8905202F08CFBC5F80C02D4F8903251
:1053E0004BB1D4F89432DB6805F50371D5F80402AB
:1053F0009847002038BD0220FCE738B5D0F890224D
:10540000D0F89852EAB101EB8104A3000344DB69B0
:105410003BB105EB4115AD6BB3FBF5F405FB143364
:105420001BB10020C2F8140238BD01EB81029300C9
:1054300003440024DC612346224602F03DFB204663
:10544000F2E70220F0E770B582B005460C46D0F8CE
:10545000906200238DF80730ADF804300B7813F01C
:10546000600227D0202A56D1CA883AB9D0F894329F
:105470009B6800224878984700204FE013F0800F87
:105480000CD0D0F894329B68314660789847E28817
:105490003146284600F090FD00203FE04B7886F82A
:1054A00000328B7986F80132CA88314600F099FDC6
:1054B000002033E04B780A2B14D00B2B21D01BB1EA
:1054C00000F072FA022029E090F87432032B05D123
:1054D000022201A900F070FD00201FE000F064FA34
:1054E00002201BE090F87432032B06D101220DF14B
:1054F000070100F061FD002010E000F055FA0220E5
:105500000CE090F87432032B01D1002006E000F08B
:105510004BFA022002E000F047FA022002B070BD10
:1055200038B50446812102F07CFA0025E5620121AC
:10553000204602F076FAC4F858518221204602F043
:1055400070FA2564D4F890324BB1D4F894325B6889
:105550009847D4F8900202F0F9FAC4F8905200206B
:1055600038BD38B50446037CA3BB4FF40073022258
:10557000812102F045FA0125E5624FF40073022211
:105580002946204602F03CFAC4F858510823032269
:105590008221204602F034FA012323644FF407707D
:1055A00002F0D0FA0546C4F8900268B3D4F89432F9
:1055B0001B6898470023C5F81432C5F81832237CBD
:1055C000C3B14023D5F804220121204602F082FA1B
:1055D000002038BD40230222812102F011FA01256A
:1055E000E562402302222946204602F009FAC4F867
:1055F0005851CBE74FF40073D5F80422012120461F
:1056000002F068FA0020E4E70120E2E719B1C0F8EF
:1056100094120020704702207047D0F89032C3F8EF
:105620000812C3F8102200207047D0F89032C3F857
:10563000041200207047D0F89022A2B108B5D2F829
:1056400014320BB1012008BD0123C2F81432D2F884
:1056500010320363B2F81032D2F80822812102F02E
:105660002BFA0020EFE702207047D0F890229AB181
:1056700008B5037C3BB14023D2F80422012102F09B
:1056800029FA002008BD4FF40073D2F8042201214A
:1056900002F020FA0020F5E70220704798B108B523
:1056A0000346D0F88C0210B10020C3F88C0209B177
:1056B000C3F888121846012380F87432027002F091
:1056C0004BF9002008BD0220704719B1C0F88C12B8
:1056D000002070470220704708B502F083F90020CF
:1056E00008BD08B5D0F88C3233B11B68984708B9AB
:1056F000002008BD0220FCE70220FAE708B5D0F838
:105700008C325B689847002008BD38B5044600F528
:105710002075284600F034F90123C4F86C32B4F83F
:105720008632C4F8703294F8801201F01F03012B06
:105730000ED03BB1022B10D001F08001204602F0C8
:105740007EF903E02946204600F0B1FA002038BD7A
:105750002946204600F0DFFAF8E72946204600F007
:105760000AFBF3E738B50446A1BB1046D4F86C3207
:10577000032B03D0052B24D0002037E0D4F84C3184
:10578000D4F8502193420DD99B1AC4F84C319A4257
:1057900006D99AB20146204600F032FC002025E0EE
:1057A00092B2F7E7D4F88C321B692BB194F87422CB
:1057B000032A01D120469847204600F029FC00200A
:1057C00014E00025C4F86C522946204602F037F94F
:1057D00028460BE00A46D0F88C329B693BB190F822
:1057E0007412032905D111469847002038BD0220C4
:1057F000FCE70220FAE710B50446002953D1104611
:10580000D4F86C32022B0CD0042B00D01BB98021B1
:10581000204602F014F994F87832012B3FD0002092
:105820004DE0236A626A93421DD8E169B1FBF2F34D
:1058300002FB13132BB98A4203D8D4F87032994271
:105840001FD3D4F88C32DB682BB194F87422032A6E
:1058500001D1204698478021204602F0F0F82046EA
:1058600000F0E1FBD7E79A1A226292B20146204685
:1058700000F0AFFB00231A461946204602F02AF931
:10588000C9E700221146204600F0A3FB0021C4F81E
:1058900070120B460A46204602F01CF9BBE70020B6
:1058A00084F878020BE00A46D0F88C325B693BB191
:1058B00090F87412032905D111469847002010BDB5
:1058C0000220FCE70220FAE770B5044640230022DC
:1058D000114602F095F80125C4F844514026C4F859
:1058E0005061334600228021204602F089F8A561EC
:1058F000666284F874520023C4F86C326360C4F8A2
:105900007C32D4F890322BB1D4F88C325B68002111
:1059100020469847002070BD01740020704790F821
:10592000743280F87532042380F874320020704796
:1059300090F8753280F874320020704708B590F8FE
:105940007432032B01D0002008BDD0F88C32DB6903
:10595000002BF8D09847F6E7002302E00133DBB2D2
:1059600001300278002AF9D11846704708B54B88F3
:10597000012B00D008BDC0F87C3200F049FBF9E7EC
:105980000B7803704B7843708B78CA7803EB022353
:1059900043800B794A7903EB022383808B79CA79A0
:1059A00003EB0223C380704710B50446802102F048
:1059B00046F80021204602F042F810BD30B583B011
:1059C00005460C464A88130A013B0E2B00F29180D3
:1059D000DFE803F01B23378F8F73808F8F8F8F8FBC
:1059E0008F8F0800D0F88832DB690DF10601007C4A
:1059F0009847BDF8062012B1E388002B7DD1E388DB
:105A0000002B00F0848003B030BDD0F888321B68D2
:105A10000DF10601007C9847EBE7037C43B9D0F811
:105A20008C329B6A0DF10600984702234370E0E731
:105A3000D0F88C32DB6A0DF10600984702234370E0
:105A4000D7E7D2B2052A34D8DFE802F0030B131BE4
:105A5000232BD0F888325B680DF10601007C984753
:105A6000C7E7D0F888329B680DF10601007C9847A3
:105A7000BFE7D0F88832DB680DF10601007C98475B
:105A8000B7E7D0F888321B690DF10601007C984712
:105A9000AFE7D0F888325B690DF10601007C9847CA
:105AA000A7E7D0F888329B690DF10601007C984782
:105AB0009FE72146FFF778FFA5E7037C33B9D0F8CD
:105AC0008C325B6B0DF10600984792E72146FFF799
:105AD0006BFF98E7037C43B9D0F88C321B6B0DF158
